:020000040800F2
:1000000000800120591100082D100008331000084D
:10001000391000083F1000084510000800000000DB
:100020000000000000000000000000004B1000086D
:100030005910000800000000671000087510000843
:10004000A9110008A9110008A9110008A9110008A8
:10005000A9110008A9110008A9110008A911000898
:10006000A9110008A9110008A9110008A911000888
:10007000A9110008A9110008A9110008A911000878
:10008000A9110008A9110008A9110008000000002A
:10009000000000000000000000000000A91100089E
:1000A000A911000881100008A9110008A911000871
:1000B000A9110008A9110008A9110008A911000838
:1000C000A9110008A9110008A9110008A911000828
:1000D000A9110008A9110008A911000800000000DA
:1000E000A9110008A9110008A911000800000000CA
:1000F000000000000000000000000000A91100083E
:1001000000000000A9110008A9110008A9110008A9
:1001100000000000000000000000000000000000DF
:10012000A9110008A9110008A9110008A9110008C7
:10013000A9110008000000000000000000000000FD
:10014000000000000000000000000000A9110008ED
:10015000A9110008A9110008A9110008A911000897
:10016000A9110008A911000800000000000000000B
:10017000000000000000000000000000000000007F
:1001800000000000A91100080000000000000000AD
:04019000A9110008A9
:1001940010B5054C237833B9044B13B10448AFF3BD
:1001A40000800123237010BD100000200000000017
:1001B4000826000808B5034B1BB103490348AFF3F5
:1001C400008008BD0000000014000020082600087C
:1001D40053B94AB9002908BF00281CBF4FF0FF31AA
:1001E4004FF0FF3000F074B9ADF1080C6DE904CEA6
:1001F40000F006F8DDF804E0DDE9022304B07047FE
:100204002DE9F047089D04468E46002B4DD18A42C5
:10021400944669D9B2FA82F252B101FA02F3C2F1F8
:10022400200120FA01F10CFA02FC41EA030E944089
:100234004FEA1C48210CBEFBF8F61FFA8CF708FBAA
:1002440016E341EA034306FB07F199420AD91CEB82
:10025400030306F1FF3080F01F81994240F21C81B4
:10026400023E63445B1AA4B2B3FBF8F008FB1033FC
:1002740044EA034400FB07F7A7420AD91CEB040431
:1002840000F1FF3380F00A81A74240F20781644401
:10029400023840EA0640E41B00261DB1D440002386
:1002A400C5E900433146BDE8F0878B4209D9002DEA
:1002B40000F0EF800026C5E9000130463146BDE874
:1002C400F087B3FA83F6002E4AD18B4202D38242DE
:1002D40000F2F980841A61EB030301209E46002D8D
:1002E400E0D0C5E9004EDDE702B9FFDEB2FA82F2E2
:1002F400002A40F09280A1EB0C014FEA1C471FFA40
:100304008CFE0126200CB1FBF7F307FB131140EA26
:1003140001410EFB03F0884208D91CEB010103F1F3
:10032400FF3802D2884200F2CB804346091AA4B2B5
:10033400B1FBF7F007FB101144EA01440EFB00FE89
:10034400A64508D91CEB040400F1FF3102D2A645EE
:1003540000F2BB800846A4EB0E0440EA03409CE78D
:10036400C6F12007B34022FA07FC4CEA030C20FA3A
:1003740007F401FA06F31C43F9404FEA1C4900FA5A
:1003840006F3B1FBF9F8200C1FFA8CFE09FB1811D7
:1003940040EA014108FB0EF0884202FA06F20BD94A
:1003A4001CEB010108F1FF3A80F08880884240F29A
:1003B4008580A8F102086144091AA4B2B1FBF9F0DE
:1003C40009FB101144EA014100FB0EFE8E4508D9D9
:1003D4001CEB010100F1FF346CD28E456AD902385E
:1003E400614440EA0840A0FB0294A1EB0E01A14243
:1003F400C846A64656D353D05DB1B3EB080261EBB1
:100404000E0101FA07F722FA06F3F1401F43C5E98A
:10041400007100263146BDE8F087C2F12003D840C0
:100424000CFA02FC21FA03F3914001434FEA1C4702
:100434001FFA8CFEB3FBF7F007FB10360B0C43EAF4
:10044400064300FB0EF69E4204FA02F408D91CEBA4
:10045400030300F1FF382FD29E422DD902386344A2
:100464009B1B89B2B3FBF7F607FB163341EA034142
:1004740006FB0EF38B4208D91CEB010106F1FF3891
:1004840016D28B4214D9023E6144C91A46EA004688
:1004940038E72E46284605E70646E3E61846F8E61A
:1004A4004B45A9D2B9EB020864EB0C0E0138A3E763
:1004B4004646EAE7204694E74046D1E7D0467BE744
:1004C400023B614432E7304609E76444023842E7BC
:1004D400704700BF80B582B000AF7860142000F090
:1004E400D5FE3821786800F02AF8052000F0CEFE09
:1004F4003821786800F023F8052000F0C7FE382181
:10050400786800F01CF80121786800F018F80221DE
:10051400786800F014F80621786800F010F80C21CF
:10052400786800F00CF82821786800F008F8802139
:10053400786800F004F800BF0837BD4680BD80B578
:1005440082B000AF78600B46FB707B681B6818466E
:100554007B685B689BB20022194601F069F9FB785D
:100564001B09DBB21946786800F072F8786800F06D
:10057400B3F8FB781946786800F06AF8786800F0F8
:10058400ABF800BF0837BD4680BD80B582B000AF70
:1005940078600B46FB707B681B6818467B685B6859
:1005A4009BB20122194601F043F9FB781B09DBB227
:1005B4001946786800F04CF8786800F08DF8FB78FC
:1005C4001946786800F044F8786800F085F800BFB0
:1005D4000837BD4680BD80B582B000AF786008465C
:1005E40011461A460346FB700B46BB7013467B70DC
:1005F400BA78FB781946786800F08EF87B7819464B
:100604007868FFF7C2FF00BF0837BD4680BD80B5DC
:1006140084B000AFF8607B600B46FB721346BB727C
:10062400BA7AFB7A1946F86800F076F807E07B6836
:100634005A1C7A601B781946F868FFF7A6FF7B6896
:100644001B78002BF3D100BF00BF1037BD4680BD1F
:1006540080B582B000AF78600B46FB707B681B6985
:1006640018467B685B6999B2FB7803F00103DBB23F
:100674001A4601F0DDF87B689B6918467B68DB69E4
:1006840099B2FB785B08DBB203F00103DBB21A46D4
:1006940001F0CEF87B681B6A18467B685B6A99B2E6
:1006A400FB789B08DBB203F00103DBB21A4601F0CE
:1006B400BFF87B689B6A18467B68DB6A99B2FB7853
:1006C400DB08DBB203F00103DBB21A4601F0B0F839
:1006D40000BF0837BD4680BD80B582B000AF7860EA
:1006E4007B689B6818467B68DB689BB201221946CD
:1006F40001F09EF8052000F0C9FD7B689B68184650
:100704007B68DB689BB20022194601F091F800BFB8
:100714000837BD4680BD000080B582B000AF786068
:100724000B46FB701346BB70BB78013BBB70FB7878
:10073400013B032B2AD801A252F823F051070008E9
:10074400610700087107000881070008BB78803B37
:10075400DBB219467868FFF7F2FE17E0BB78403B3E
:10076400DBB219467868FFF7EAFE0FE0BB786C3B12
:10077400DBB219467868FFF7E2FE07E0BB782C3B52
:10078400DBB219467868FFF7DAFE00BF00BF08370E
:10079400BD4680BD80B588B000AF07F10C030022D0
:1007A4001A605A609A60DA601A610023BB60404B99
:1007B4001B6B3F4A43F0100313633D4B1B6B03F069
:1007C4001003BB60BB6800237B60394B1B6B384A4A
:1007D40043F008031363364B1B6B03F008037B6081
:1007E4007B6800233B60324B1B6B314A43F00403AC
:1007F40013632F4B1B6B03F004033B603B68002225
:10080400C3212C4801F014F8002240F2FF612A4869
:1008140001F00EF800220421284801F009F83C23D5
:10082400FB6000233B6100237B6107F10C03194645
:10083400204800F061FEC323FB6001233B610023D9
:100844007B610023BB6107F10C031946194800F0D2
:1008540053FE40F2FF63FB6001233B6100237B6195
:100864000023BB6107F10C031946134800F044FE52
:100874004FF46053FB6000233B6100237B6107F16D
:100884000C0319460C4800F037FE0423FB600123D7
:100894003B6100237B610023BB6107F10C03194614
:1008A400064800F029FE00BF2037BD4680BD00BFCA
:1008B4000038024000100240000C024000080240D0
:1008C40080B584B000AF78600023FB730023BB7352
:1008D4000023FB7311E0FA7B7B6853F8323018462F
:1008E400FB7B7A68DB0013445B689BB200221946E9
:1008F40000F09EFFFB7B0133FB73FB7B032BEAD9E8
:1009040000BF00BF1037BD4680BD000080B584B075
:1009140000AF7860396000233B730023FB7300232E
:10092400BB7300237B730023FB7353E000237B73AF
:1009340011E07A7B7B6853F8323018467B7B7A6807
:10094400DB0013445B689BB20022194600F070FF81
:100954007B7B01337B737B7B032BEAD9FA7B7B683C
:1009640053F832301846FB7B7A68DB0013445B682B
:100974009BB20122194600F05BFF0A2000F086FCBE
:100984000023BB7320E0BA7B7B68043253F8323017
:100994001846BB7B7A680433DB0013445B689BB264
:1009A400194600F02DFF03463B733B7B012B08D116
:1009B400FA7BBB7B0B4992000A4413441A783B68C8
:1009C4001A70BB7B0133BB73BB7B032BDBD9FB7B73
:1009D4000133FB73FB7B032BA8D900BF00BF103787
:1009E400BD4680BD2826000880B500AF00F0DCFBC2
:1009F40000F084F8FFF7CEFE00F060FB334801F00E
:100A0400A5FB00F079FA324B082202213148FFF7A6
:100A1400FEFD00F0D3F800F07BF92F4B1B78012B7F
:100A240004D1012202212D4800F002FF2A4B1B7839
:100A3400002B08D12A4B1B78002B04D10022022161
:100A4400264800F0F5FE274B1B78012B12D1224BD0
:100A54001B78002B0ED100F0FDF8214B1B78012BE5
:100A640008D1214B1B78002B04D100F0F5F91F4B62
:100A740000221A701C4B1B78012B07D1184B002243
:100A84001A70194B00221A7000F006FA174B1B78E3
:100A9400022BBED100F000FA0D4B082202210D48B2
:100AA400FFF7B5FD104B00221A700D4B00221A708F
:100AB4000F4B00221A700F4B3C221A700B4B002272
:100AC4001A700D4B00221A70A3E700BFAC0000207F
:100AD400202600083C0000202C00002000100240CA
:100AE4002F0000202D0000203100002032000020C3
:100AF40033000020000000203500002080B594B0B1
:100B040000AF07F1200330220021184601F072FDE6
:100B140007F10C0300221A605A609A60DA601A61C5
:100B24000023BB60234B1B6C224A43F080531364A5
:100B3400204B1B6C03F08053BB60BB6800237B60BD
:100B44001D4B1B6823F440431B4A43F400431360CA
:100B5400194B1B6803F440437B607B6802233B62B0
:100B64000123FB6210233B630023BB6307F12003D3
:100B7400184600F077FE0346002B01D000F026FA59
:100B84000F23FB6000233B6100237B610023BB61D7
:100B94000023FB6107F10C030021184601F0DAF889
:100BA4000346002B01D000F011FA00BF5037BD46B8
:100BB40080BD00BF003802400070004080B500AF27
:100BC40020211C4800F01CFE03461A461A4B1A70DA
:100BD4001021184800F014FE03461A46174B1A70E9
:100BE4000421144800F00CFE03461A46144B1A70F4
:100BF400134B1B78012B02D1124B01221A700821CE
:100C04000C4800F0FDFD03461A460F4B1A700E4BBC
:100C14001B78012B0BD10D4B1B780133DAB20B4B34
:100C24001A700B4B1B780133DAB2094B1A7000BFF0
:100C340080BD00BF001002402D0000202C000020C9
:100C44002E0000202F000020300000203100002062
:100C54003200002080B500AF284B1B78022B4BD00C
:100C640000F03AF903461A46254B1A70244B1B78B8
:100C74002F2B41D9224B1B78392B3DD8204B1B7885
:100C8400002B39D01F4B1B781A46920013445B008B
:100C9400DAB21B4B1B781344DBB2303BDAB2194B8C
:100CA4001A70184B1B78092B0BD8154B1A78164B56
:100CB4001A70154B1B78092202211448FFF78BFC8C
:100CC40011E0104B1B78092B0DD90D4B1B78092211
:100CD40002210E48FFF77FFC0B4B1B7808220221F0
:100CE4000A48FFF778FC054B1B780133DAB2034B53
:100CF4001A70034B00221A7000BF80BD350000201B
:100D04003400002033000020380000203C00002084
:100D140080B500AF464B1B78012B40F08680454BD5
:100D24001B78012B40F08180434B1B78002B6ED045
:100D3400424B1B78013BDAB2404B1A703E4B1B7896
:100D4400013B3F4A82FB03129210DB17D31ADBB23A
:100D54003033DAB23B4B1A703A4B1B78082202212B
:100D64003948FFF738FC344B1B785A1E344B83FB4D
:100D740002139910D317C91A0B469B000B445B004E
:100D8400D11ACBB23033DAB22E4B1A702D4B1B78FA
:100D9400092202212C48FFF71EFC284B1B782B4A02
:100DA400A2FB0323DB08DBB23033DAB2254B1A7023
:100DB400244B1B780B2202212348FFF70CFC1F4B0A
:100DC4001A78224BA3FB0213D9080B469B000B4451
:100DD4005B00D31ADBB23033DAB21A4B1A70194BF8
:100DE4001B780C2202211848FFF7F5FB134B1B78E4
:100DF400002B08D1104B1B78013BDAB20E4B1A7052
:100E04000E4B3C221A700B4B00221A700DE0104B53
:100E1400082202210C48FFF7FAFB0E4B00221A703D
:100E240000F03AF8034B00221A7000BF80BD00BFE7
:100E3400360000203900002033000020000000208C
:100E440067666666370000203C000020CDCCCCCC21
:100E5400202600082F00002080B500AF01220121C8
:100E64000B4800F0E5FC01220221094800F0E0FCF7
:100E740001224021064800F0DBFC002280210448C6
:100E840000F0D6FC034B01221A7000BF80BD00BFE6
:100E9400001002403600002080B500AF002201217E
:100EA4000B4800F0C5FC00220221094800F0C0FCF8
:100EB40000224021064800F0BBFC002280210448A7
:100EC40000F0B6FC034B00221A7000BF80BD00BFC7
:100ED400001002403600002080B582B000AFFB1D38
:100EE40019460448FFF712FDFB7918460837BD463A
:100EF40080BD00BF6C00002080B500AF304B314A8C
:100F04001A602F4B01225A602D4B2E4A9A602C4BAB
:100F14000222DA602A4B2B4A1A61294B04225A61B5
:100F2400274B284A9A61264B0822DA61244B254A2A
:100F34001A62234B10225A62214B224A9A62204B96
:100F44002022DA62204B1F4A1A601F4B40225A604B
:100F54001D4B1C4A9A601C4B8022DA601A4B194ABA
:100F64001A61194B4FF400725A61174B154A9A6172
:100F7400154B4FF48062DA61134B124A1A62124B1A
:100F84004FF400625A62104B0E4A9A620E4B4FF4B1
:100F94008052DA620C4B0B4A1A630B4B4FF400522B
:100FA4005A63094B074A9A63074B4FF48042DA634A
:100FB4000348FFF78FFA0448FFF782FC00BF80BDA7
:100FC4003C000020000C02406C00002080B400AF04
:100FD40072B600BFFEE7000080B483B000AF002308
:100FE4007B60104B5B6C0F4A43F4804353640D4B9E
:100FF4005B6C03F480437B607B6800233B60094B9C
:101004001B6C084A43F080531364064B1B6C03F0BB
:1010140080533B603B6800BF0C37BD465DF8047BE2
:10102400704700BF0038024080B400AFFEE780B4D0
:1010340000AFFEE780B400AFFEE780B400AFFEE788
:1010440080B400AFFEE780B400AF00BFBD465DF8DA
:10105400047B704780B400AF00BFBD465DF8047BDD
:10106400704780B400AF00BFBD465DF8047B704795
:1010740080B500AF00F0EAF800BF80BD80B500AFD6
:10108400034801F0C5F8034B01221A7000BF80BD6C
:10109400AC0000203900002080B400AF064BD3F828
:1010A4008830054A43F47003C2F8883000BFBD4657
:1010B4005DF8047B704700BF00ED00E080B500AF31
:1010C4000E4B0F4A1A600D4B18225A600B4B00222C
:1010D4009A600A4B4FF6FF12DA60084B00221A613D
:1010E400064B00229A61054800F0E0FF0346002BFE
:1010F40001D0FFF76BFF00BF80BD00BFAC00002034
:101104000044014080B584B000AF78607B681B6800
:101114000E4A934215D10023FB600D4B5B6C0C4AC5
:1011240043F4003353640A4B5B6C03F40033FB60F9
:10113400FB6800220021192000F0A7F9192000F013
:10114400C0F900BF1037BD4680BD00BF0044014058
:1011540000380240DFF834D00D480E490E4A00230F
:1011640002E0D458C4500433C4188C42F9D30B4A57
:101174000B4C002301E013600432A242FBD3FFF7BF
:101184008BFF01F013FAFFF72FFC7047008001205A
:101194000000002010000020582600081000002045
:1011A400F8000020FEE7000080B500AF0E4B1B687E
:1011B4000D4A43F4007313600B4B1B680A4A43F453
:1011C40080631360084B1B68074A43F48073136001
:1011D400032000F04FF90F2000F008F8FFF7FCFEA1
:1011E4000023184680BD00BF003C024080B582B099
:1011F40000AF7860124B1A68124B1B7819464FF4F3
:101204007A73B3FBF1F3B2FBF3F3184600F067F91A
:101214000346002B01D001230EE07B680F2B0AD874
:10122400002279684FF0FF3000F02FF9064A7B68FE
:101234001360002300E0012318460837BD4680BD33
:10124400040000200C0000200800002080B400AF3F
:10125400064B1B781A46064B1B681344044A13605A
:1012640000BFBD465DF8047B704700BF0C00002042
:10127400F400002080B400AF034B1B681846BD4641
:101284005DF8047B704700BFF400002080B584B093
:1012940000AF7860FFF7EEFFB8607B68FB60FB6827
:1012A400B3F1FF3F05D00A4B1B781A46FB68134481
:1012B400FB6000BFFFF7DEFF0246BB68D31AFA6883
:1012C4009A42F7D800BF00BF1037BD4680BD00BFAB
:1012D4000C00002080B485B000AF78607B6803F018
:1012E4000703FB600C4BDB68BB60BA684FF6FF0377
:1012F4001340BB60FB681A02BB68134343F0BF632F
:1013040043F40033BB60044ABB68D36000BF1437A6
:10131400BD465DF8047B704700ED00E080B400AF8B
:10132400044BDB681B0A03F007031846BD465DF84F
:10133400047B704700ED00E080B483B000AF034647
:10134400FB7197F90730002B0BDBFB7903F01F02CD
:10135400074997F907305B09012000FA02F241F8C6
:10136400232000BF0C37BD465DF8047B704700BFE7
:1013740000E100E080B483B000AF03463960FB7144
:1013840097F90730002B0ADB3B68DAB20C4997F96E
:1013940007301201D2B20B4483F800230AE03B6801
:1013A400DAB20849FB7903F00F03043B1201D2B20D
:1013B4000B441A7600BF0C37BD465DF8047B7047BA
:1013C40000E100E000ED00E080B489B000AFF86017
:1013D400B9607A60FB6803F00703FB61FB69C3F142
:1013E4000703042B28BF0423BB61FB690433062BCA
:1013F40002D9FB69033B00E000237B614FF0FF321D
:10140400BB6902FA03F3DA43BB681A407B699A406A
:101414004FF0FF317B6901FA03F3D9437B680B403A
:10142400134318462437BD465DF8047B704700001B
:1014340080B582B000AF78607B68013BB3F1807FF8
:1014440001D301230FE00A4A7B68013B53600F215B
:101454004FF0FF30FFF78EFF054B00229A60044BDC
:1014640007221A60002318460837BD4680BD00BF16
:1014740010E000E080B582B000AF78607868FFF7D4
:1014840029FF00BF0837BD4680BD80B586B000AFD8
:101494000346B9607A60FB7300237B61FFF73EFF6C
:1014A40078617A68B9687869FFF78EFF024697F920
:1014B4000F3011461846FFF75DFF00BF1837BD46D1
:1014C40080BD80B582B000AF0346FB7197F9073049
:1014D4001846FFF731FF00BF0837BD4680BD80B511
:1014E40082B000AF78607868FFF7A2FF0346184621
:1014F4000837BD4680BD000080B489B000AF786075
:10150400396000237B6100233B610023BB6100231E
:10151400FB6159E10122FB6902FA03F37B613B6839
:101524001B687A6913403B613A697B699A4240F0CF
:1015340048813B685B6803F00303012B05D03B68DB
:101544005B6803F00303022B30D17B689B68BB61AB
:10155400FB695B00032202FA03F3DB43BA6913401D
:10156400BB613B68DA68FB695B0002FA03F3BA69A2
:101574001343BB617B68BA699A607B685B68BB6133
:101584000122FB6902FA03F3DB43BA691340BB612E
:101594003B685B681B0903F00102FB6902FA03F371
:1015A400BA691343BB617B68BA695A603B685B687C
:1015B40003F00303032B17D07B68DB68BB61FB6973
:1015C4005B00032202FA03F3DB43BA691340BB61F5
:1015D4003B689A68FB695B0002FA03F3BA69134338
:1015E400BB617B68BA69DA603B685B6803F003033C
:1015F400022B23D1FB69DA087B68083253F82230C6
:10160400BB61FB6903F007039B000F2202FA03F39B
:10161400DB43BA691340BB613B681A69FB6903F099
:1016240007039B0002FA03F3BA691343BB61FB6926
:10163400DA087B680832B96943F822107B681B68B2
:10164400BB61FB695B00032202FA03F3DB43BA6963
:101654001340BB613B685B6803F00302FB695B00FA
:1016640002FA03F3BA691343BB617B68BA691A606F
:101674003B685B6803F44033002B00F0A280002336
:10168400FB60574B5B6C564A43F480435364544BA2
:101694005B6C03F48043FB60FB68524AFB699B0864
:1016A400023352F82330BB61FB6903F003039B0050
:1016B4000F2202FA03F3DB43BA691340BB617B6870
:1016C400494A934219D07B68484A934213D07B68B5
:1016D400474A93420DD07B68464A934207D07B68C1
:1016E400454A934201D1042308E0072306E003237B
:1016F40004E0022302E0012300E00023FA6902F07F
:10170400030292009340BA691343BB613549FB69F4
:101714009B080233BA6941F82320384B1B68BB612C
:101724003B69DB43BA691340BB613B685B6803F404
:101734008033002B03D0BA693B691343BB612F4A42
:10174400BB6913602D4B5B68BB613B69DB43BA69C2
:101754001340BB613B685B6803F40033002B03D088
:10176400BA693B691343BB61244ABB695360234B89
:101774009B68BB613B69DB43BA691340BB613B684F
:101784005B6803F48013002B03D0BA693B691343ED
:10179400BB611A4ABB699360184BDB68BB613B6948
:1017A400DB43BA691340BB613B685B6803F4001315
:1017B400002B03D0BA693B691343BB610F4ABB6971
:1017C400D360FB690133FB61FB690F2B7FF6A2AE8B
:1017D40000BF00BF2437BD465DF8047B704700BFDF
:1017E400003802400038014000000240000402407A
:1017F40000080240000C024000100240003C01407E
:1018040080B485B000AF78600B467B807B681A6932
:101814007B881340002B02D00123FB7301E00023DB
:10182400FB73FB7B18461437BD465DF8047B704799
:1018340080B483B000AF78600B467B8013467B7026
:101844007B78002B03D07A887B689A6103E07B88DD
:101854001A047B689A6100BF0C37BD465DF8047BAF
:101864007047000080B586B000AF78607B68002BBD
:1018740001D1012367E27B681B6803F00103002B9D
:1018840075D0884B9B6803F00C03042B0CD0854B5C
:101894009B6803F00C03082B12D1824B5B6803F4A2
:1018A4008003B3F5800F0BD17E4B1B6803F4003328
:1018B400002B5BD07B685B68002B57D1012342E28D
:1018C4007B685B68B3F5803F06D1764B1B68754A2D
:1018D40043F4803313601DE07B685B68B3F5A02F8D
:1018E4000CD1704B1B686F4A43F4802313606D4B1B
:1018F4001B686C4A43F4803313600BE0694B1B682C
:10190400684A23F480331360664B1B68654A23F4EA
:10191400802313607B685B68002B13D0FFF7AAFC5D
:10192400386108E0FFF7A6FC02463B69D31A642B32
:1019340001D9032307E25B4B1B6803F40033002B3C
:10194400F0D014E0FFF796FC386108E0FFF792FC52
:1019540002463B69D31A642B01D90323F3E1514BAB
:101964001B6803F40033002BF0D100E000BF7B6858
:101974001B6803F00203002B63D04A4B9B6803F0FF
:101984000C03002B0BD0474B9B6803F00C03082B74
:101994001CD1444B5B6803F48003002B16D1414BEC
:1019A4001B6803F00203002B05D07B68DB68012B66
:1019B40001D00123C7E13B4B1B6823F0F8027B688D
:1019C4001B69DB00374913430B603AE07B68DB6833
:1019D400002B20D0344B01221A60FFF74BFC3861F6
:1019E40008E0FFF747FC02463B69D31A022B01D9F2
:1019F4000323A8E12B4B1B6803F00203002BF0D058
:101A0400284B1B6823F0F8027B681B69DB0025491F
:101A140013430B6015E0244B00221A60FFF72AFCE5
:101A2400386108E0FFF726FC02463B69D31A022B13
:101A340001D9032387E11B4B1B6803F00203002B2E
:101A4400F0D17B681B6803F00803002B36D07B6859
:101A54005B69002B16D0154B01221A60FFF70AFCB4
:101A6400386108E0FFF706FC02463B69D31A022BF3
:101A740001D9032367E10B4B5B6F03F00203002BD7
:101A8400F0D01BE0094B00221A60FFF7F3FB38612A
:101A94000EE0FFF7EFFB02463B69D31A022B07D98E
:101AA400032350E10038024000004742800E4742C1
:101AB400884B5B6F03F00203002BEAD17B681B6841
:101AC40003F00403002B00F097800023FB75814B87
:101AD4001B6C03F08053002B0FD10023BB607D4BA4
:101AE4001B6C7C4A43F0805313647A4B1B6C03F0E9
:101AF4008053BB60BB680123FB75774B1B6803F401
:101B04008073002B18D1744B1B68734A43F48073A1
:101B14001360FFF7AFFB386108E0FFF7ABFB024649
:101B24003B69D31A022B01D903230CE16A4B1B68CE
:101B340003F48073002BF0D07B689B68012B06D1E3
:101B4400644B1B6F634A43F0010313671CE07B681B
:101B54009B68052B0CD15F4B1B6F5E4A43F004035B
:101B640013675C4B1B6F5B4A43F0010313670BE085
:101B7400584B1B6F574A23F001031367554B1B6FD8
:101B8400544A23F0040313677B689B68002B15D029
:101B9400FFF770FB38610AE0FFF76CFB02463B6914
:101BA400D31A41F28832934201D90323CBE0494B43
:101BB4001B6F03F00203002BEED014E0FFF75AFB77
:101BC40038610AE0FFF756FB02463B69D31A41F23B
:101BD4008832934201D90323B5E03E4B1B6F03F0D7
:101BE4000203002BEED1FB7D012B05D1394B1B6C7D
:101BF400384A23F0805313647B689B69002B00F000
:101C0400A180344B9B6803F00C03082B5CD07B68E9
:101C14009B69022B41D1314B00221A60FFF72AFB4A
:101C2400386108E0FFF726FB02463B69D31A022B12
:101C340001D9032387E0274B1B6803F00073002BB3
:101C4400F0D17B68DA697B681B6A1A437B685B6A3C
:101C54009B011A437B689B6A5B08013B1B041A4384
:101C64007B68DB6A1B061B4913434B601B4B012239
:101C74001A60FFF7FFFA386108E0FFF7FBFA024643
:101C84003B69D31A022B01D903235CE0114B1B6877
:101C940003F00073002BF0D054E0104B00221A60C4
:101CA400FFF7E8FA386108E0FFF7E4FA02463B6917
:101CB400D31A022B01D9032345E0064B1B6803F01A
:101CC4000073002BF0D13DE07B689B69012B07D1A9
:101CD400012338E0003802400070004060004742B1
:101CE4001B4B5B68FB607B689B69012B28D0FB68FE
:101CF40003F480027B68DB699A4221D1FB6803F01C
:101D04003F027B681B6A9A421AD1FA6847F6C0738D
:101D140013407A68526A9201934211D1FB6803F42A
:101D240040327B689B6A5B08013B1B049A4207D1E3
:101D3400FB6803F070627B68DB6A1B069A4201D081
:101D4400012300E0002318461837BD4680BD00BFBC
:101D54000038024080B584B000AF786039607B6899
:101D6400002B01D10123CCE0684B1B6803F007036F
:101D74003A689A420CD9654B3A68D2B21A70634BEE
:101D84001B6803F007033A689A4201D00123B8E0C4
:101D94007B681B6803F00203002B20D07B681B6860
:101DA40003F00403002B05D0594B9B68584A43F4B5
:101DB400E05393607B681B6803F00803002B05D095
:101DC400534B9B68524A43F460439360504B9B6867
:101DD40023F0F0027B689B684D4913438B607B685A
:101DE4001B6803F00103002B44D07B685B68012B64
:101DF40007D1474B1B6803F40033002B19D101238F
:101E04007FE07B685B68022B03D07B685B68032BF5
:101E140007D13F4B1B6803F00073002B09D101234A
:101E24006FE03B4B1B6803F00203002B01D101233D
:101E340067E0374B9B6823F003027B685B68344997
:101E440013438B60FFF716FAF8600AE0FFF712FA03
:101E54000246FB68D31A41F28832934201D9032324
:101E64004FE02B4B9B6803F00C027B685B689B0084
:101E74009A42EBD1254B1B6803F007033A689A4258
:101E84000CD2224B3A68D2B21A70204B1B6803F072
:101E940007033A689A4201D0012332E07B681B6849
:101EA40003F00403002B08D0194B9B6823F4E05281
:101EB4007B68DB68164913438B607B681B6803F0FF
:101EC4000803002B09D0124B9B6823F460427B6803
:101ED4001B69DB000E4913438B6000F021F80246B6
:101EE4000B4B9B681B0903F00F030A49CB5C22FAD6
:101EF40003F3094A1360094B1B681846FFF776F988
:101F0400002318461037BD4680BD00BF003C024088
:101F14000038024038260008040000200800002091
:101F24002DE9B04F90B000AF00237B630023FB6327
:101F340000233B630023BB63594B9B6803F00C03F2
:101F4400082B0DD0082B00F2A180002B02D0042B0B
:101F540003D09BE0534BBB639BE0534BBB6398E0C4
:101F64004F4B5B6803F03F037B634D4B5B6803F4AB
:101F74008003002B28D04A4B5B689B0900223B62FC
:101F84007A623B6AC3F308000021474B03FB01F26A
:101F9400002300FB03F31344434AA0FB0212FA623A
:101FA4000A46BA62FA6A1344FB627B6B0022BB6185
:101FB400FA61D7E90623D7E90A01FEF709F90246CF
:101FC4000B461346FB6353E0354B5B689B090022C9
:101FD4003B617A613B69C3F3080A4FF0000B524638
:101FE4005B464FF000004FF00001590141EAD26115
:101FF400500102460B46B2EB0A0863EB0B094FF0A3
:1020040000024FF000034FEA891343EA98634FEA52
:102014008812B2EB080463EB09054FF000024FF09D
:102024000003EB0043EA5473E20014461D4614EB2C
:102034000A033B6045EB0B037B604FF000024FF05B
:102044000003D7E9004529468B02214643EA915310
:1020540021468A02104619467B6B0022BB60FA6057
:10206400D7E90223FEF7B4F802460B461346FB6396
:102074000B4B5B681B0C03F0030301335B003B63F6
:10208400FA6B3B6BB2FBF3F3BB6302E0054BBB6340
:1020940000BFBB6B18464037BD46BDE8B08F00BFDC
:1020A400003802400024F40040787D0180B582B0FD
:1020B40000AF78607B68002B01D1012341E07B688D
:1020C40093F83D30DBB2002B06D17B68002283F805
:1020D4003C207868FFF716F87B68022283F83D20DD
:1020E4007B681A687B6804331946104600F0CAF905
:1020F4007B68012283F846207B68012283F83E2016
:102104007B68012283F83F207B68012283F840200A
:102114007B68012283F841207B68012283F84220F6
:102124007B68012283F843207B68012283F84420E2
:102134007B68012283F845207B68012283F83D20D7
:10214400002318460837BD4680BD000080B485B022
:1021540000AF78607B6893F83D30DBB2012B01D08F
:10216400012344E07B68022283F83D207B681B68DE
:10217400DA687B681B6842F00102DA607B681B68DE
:102184001E4A934218D07B681B68B3F1804F13D06A
:102194007B681B681A4A93420ED07B681B68194AF5
:1021A400934209D07B681B68174A934204D07B682A
:1021B4001B68164A934211D17B681B689B6803F025
:1021C4000703FB60FB68062B10D07B681B681A684A
:1021D4007B681B6842F001021A6007E07B681B6899
:1021E4001A687B681B6842F001021A6000231846D3
:1021F4001437BD465DF8047B704700BF0000014002
:102204000004004000080040000C00400040014071
:1022140080B582B000AF78607B681B681B6903F0EF
:102224000203022B22D17B681B68DB6803F00203E4
:10223400022B1BD17B681B686FF002021A617B685A
:1022440001221A777B681B689B6903F00303002B48
:1022540003D0786800F0F8F805E0786800F0EAF850
:10226400786800F0FBF87B6800221A777B681B68AB
:102274001B6903F00403042B22D17B681B68DB6811
:1022840003F00403042B1BD17B681B686FF004026A
:102294001A617B6802221A777B681B689B6903F4C6
:1022A4004073002B03D0786800F0CEF805E078681E
:1022B40000F0C0F8786800F0D1F87B6800221A7743
:1022C4007B681B681B6903F00803082B22D17B6819
:1022D4001B68DB6803F00803082B1BD17B681B68B1
:1022E4006FF008021A617B6804221A777B681B6806
:1022F400DB6903F00303002B03D0786800F0A4F833
:1023040005E0786800F096F8786800F0A7F87B6834
:1023140000221A777B681B681B6903F01003102BDB
:1023240022D17B681B68DB6803F01003102B1BD1E0
:102334007B681B686FF010021A617B6808221A77A9
:102344007B681B68DB6903F44073002B03D0786857
:1023540000F07AF805E0786800F06CF8786800F02E
:102364007DF87B6800221A777B681B681B6903F081
:102374000103012B0ED17B681B68DB6803F00103AA
:10238400012B07D17B681B686FF001021A61786822
:1023940000F046F87B681B681B6903F08003802B00
:1023A4000ED17B681B68DB6803F08003802B07D1A8
:1023B4007B681B686FF080021A61786800F0ECF8A3
:1023C4007B681B681B6903F04003402B0ED17B68BC
:1023D4001B68DB6803F04003402B07D17B681B6854
:1023E4006FF040021A61786800F042F87B681B685D
:1023F4001B6903F02003202B0ED17B681B68DB686C
:1024040003F02003202B07D17B681B686FF02002A8
:102414001A61786800F0B6F800BF0837BD4680BD81
:1024240080B483B000AF786000BF0C37BD465DF860
:10243400047B704780B483B000AF786000BF0C3772
:10244400BD465DF8047B704780B483B000AF78600C
:1024540000BF0C37BD465DF8047B704780B483B081
:1024640000AF786000BF0C37BD465DF8047B704751
:1024740080B483B000AF786000BF0C37BD465DF810
:10248400047B704780B485B000AF786039607B68A6
:102494001B68FB607B68344A93420FD07B68B3F1BE
:1024A400804F0BD07B68314A934207D07B68304A17
:1024B400934203D07B682F4A934208D1FB6823F0F0
:1024C4007003FB603B685B68FA681343FB607B68DE
:1024D400254A93421BD07B68B3F1804F17D07B68A9
:1024E400224A934213D07B68214A93420FD07B68DF
:1024F400204A93420BD07B681F4A934207D07B68E3
:102504001E4A934203D07B681D4A934208D1FB685C
:1025140023F44073FB603B68DB68FA681343FB6099
:10252400FB6823F080023B685B691343FB607B68B4
:10253400FA681A603B689A687B68DA623B681A68D2
:102544007B689A627B68084A934203D13B681A69A4
:102554007B681A637B6801225A6100BF1437BD4649
:102564005DF8047B704700BF000001400004004098
:1025740000080040000C00400040014000440140BD
:102584000048014080B483B000AF786000BF0C37CE
:10259400BD465DF8047B704780B483B000AF7860BB
:1025A40000BF0C37BD465DF8047B704770B50D4D18
:1025B4000D4C641BA4100026A64209D10B4D0C4CF3
:1025C40000F020F8641BA4100026A64205D170BDBB
:1025D40055F8043B98470136EEE755F8043B984715
:1025E4000136F2E75026000850260008502600085D
:1025F4005426000802440346934200D1704703F86E
:10260400011BF9E7F8B500BFF8BC08BC9E4670474B
:0C261400F8B500BFF8BC08BC9E4670473B
:1026200030303A30300000003738392F3435362A10
:102630003132332D23303D2B00000000000000001C
:0826400001020304060708096A
:08264800BCDBFF7F0100000074
:04265000B9010008C4
:0426540095010008E4
:102658003C0000000024F40010000000010000000D
:040000050800115985
:00000001FF
